{
  "transactions": [
    {
      "hash": "0x29882ce2cb77c90759eb24140812a1fe8a96230d6673e2a82f712e653709fae6",
      "transactionType": "CALL",
      "contractName": null,
      "contractAddress": "0x779877a7b0d9e8603169ddbd7836e478b4624789",
      "function": "transferAndCall(address,uint256,bytes)",
      "arguments": [
        "0x9DdfaCa8183c41ad55329BdeeD9F6A8d53168B1B",
        "3000000000000000000",
        "0x6564724eb438f2af9541f8ba11907f1d7008e1b3bf71d957b1493d6fdecdf174"
      ],
      "transaction": {
        "from": "0xc0c4f8e28594a43d8193bbc46421a49927e1671b",
        "to": "0x779877a7b0d9e8603169ddbd7836e478b4624789",
        "gas": "0x1c1ff",
        "value": "0x0",
        "input": "0x4000aea00000000000000000000000009ddfaca8183c41ad55329bdeed9f6a8d53168b1b00000000000000000000000000000000000000000000000029a2241af62c0000000000000000000000000000000000000000000000000000000000000000006000000000000000000000000000000000000000000000000000000000000000206564724eb438f2af9541f8ba11907f1d7008e1b3bf71d957b1493d6fdecdf174",
        "nonce": "0x53",
        "chainId": "0xaa36a7"
      },
      "additionalContracts": [],
      "isFixedGasLimit": false
    }
  ],
  "receipts": [
    {
      "status": "0x1",
      "cumulativeGasUsed": "0x81fe0f",
      "logs": [
        {
          "address": "0x779877a7b0d9e8603169ddbd7836e478b4624789",
          "topics": [
            "0xddf252ad1be2c89b69c2b068fc378daa952ba7f163c4a11628f55a4df523b3ef",
            "0x000000000000000000000000c0c4f8e28594a43d8193bbc46421a49927e1671b",
            "0x0000000000000000000000009ddfaca8183c41ad55329bdeed9f6a8d53168b1b"
          ],
          "data": "0x00000000000000000000000000000000000000000000000029a2241af62c0000",
          "blockHash": "0x338a192824c1bab23176a40a92daae74b8020af2ed2b85dc8bccd22bab34e19a",
          "blockNumber": "0x77e64b",
          "transactionHash": "0x29882ce2cb77c90759eb24140812a1fe8a96230d6673e2a82f712e653709fae6",
          "transactionIndex": "0x83",
          "logIndex": "0x57",
          "removed": false
        },
        {
          "address": "0x779877a7b0d9e8603169ddbd7836e478b4624789",
          "topics": [
            "0xe19260aff97b920c7df27010903aeb9c8d2be5d310a2c67824cf3f15396e4c16",
            "0x000000000000000000000000c0c4f8e28594a43d8193bbc46421a49927e1671b",
            "0x0000000000000000000000009ddfaca8183c41ad55329bdeed9f6a8d53168b1b"
          ],
          "data": "0x00000000000000000000000000000000000000000000000029a2241af62c0000000000000000000000000000000000000000000000000000000000000000004000000000000000000000000000000000000000000000000000000000000000206564724eb438f2af9541f8ba11907f1d7008e1b3bf71d957b1493d6fdecdf174",
          "blockHash": "0x338a192824c1bab23176a40a92daae74b8020af2ed2b85dc8bccd22bab34e19a",
          "blockNumber": "0x77e64b",
          "transactionHash": "0x29882ce2cb77c90759eb24140812a1fe8a96230d6673e2a82f712e653709fae6",
          "transactionIndex": "0x83",
          "logIndex": "0x58",
          "removed": false
        },
        {
          "address": "0x9ddfaca8183c41ad55329bdeed9f6a8d53168b1b",
          "topics": [
            "0x1ced9348ff549fceab2ac57cd3a9de38edaaab274b725ee82c23e8fc8c4eec7a",
            "0x6564724eb438f2af9541f8ba11907f1d7008e1b3bf71d957b1493d6fdecdf174"
          ],
          "data": "0x000000000000000000000000000000000000000000000000000000000000000000000000000000000000000000000000000000000000000029a2241af62c0000",
          "blockHash": "0x338a192824c1bab23176a40a92daae74b8020af2ed2b85dc8bccd22bab34e19a",
          "blockNumber": "0x77e64b",
          "transactionHash": "0x29882ce2cb77c90759eb24140812a1fe8a96230d6673e2a82f712e653709fae6",
          "transactionIndex": "0x83",
          "logIndex": "0x59",
          "removed": false
        }
      ],
      "logsBloom": "0x00000004000000000000000000000001000000000020000000000000020000000000000000000000000080000000000000000000000000000000000000000000000000000000000000000008000004000000000000000000000020000020000008000000000000000000000000000000000000000000000000000010000040000000000000000000000000010000800000000020000000000000000000000000000000000000020000000100010000000000000000000000000004000000000000000002000000000000000000000000000000000000000100000000000000000010000000000000800000000000000000000000080000000000000000000000",
      "type": "0x2",
      "transactionHash": "0x29882ce2cb77c90759eb24140812a1fe8a96230d6673e2a82f712e653709fae6",
      "transactionIndex": "0x83",
      "blockHash": "0x338a192824c1bab23176a40a92daae74b8020af2ed2b85dc8bccd22bab34e19a",
      "blockNumber": "0x77e64b",
      "gasUsed": "0x133b1",
      "effectiveGasPrice": "0x1005f8",
      "from": "0xc0c4f8e28594a43d8193bbc46421a49927e1671b",
      "to": "0x779877a7b0d9e8603169ddbd7836e478b4624789",
      "contractAddress": null
    }
  ],
  "libraries": [],
  "pending": [],
  "returns": {},
  "timestamp": 1741421186,
  "chain": 11155111,
  "commit": "b5ed8d2"
}